{
  "contractName": "MockWethTest",
  "abi": [
    {
      "inputs": [],
      "name": "AdminBadRole",
      "type": "error"
    },
    {
      "anonymous": false,
      "inputs": [
        {
          "indexed": true,
          "internalType": "address",
          "name": "dst",
          "type": "address"
        },
        {
          "indexed": false,
          "internalType": "uint256",
          "name": "wad",
          "type": "uint256"
        }
      ],
      "name": "Deposit",
      "type": "event"
    },
    {
      "anonymous": false,
      "inputs": [
        {
          "indexed": true,
          "internalType": "bytes32",
          "name": "role",
          "type": "bytes32"
        },
        {
          "indexed": true,
          "internalType": "bytes32",
          "name": "previousAdminRole",
          "type": "bytes32"
        },
        {
          "indexed": true,
          "internalType": "bytes32",
          "name": "newAdminRole",
          "type": "bytes32"
        }
      ],
      "name": "RoleAdminChanged",
      "type": "event"
    },
    {
      "anonymous": false,
      "inputs": [
        {
          "indexed": true,
          "internalType": "bytes32",
          "name": "role",
          "type": "bytes32"
        },
        {
          "indexed": true,
          "internalType": "address",
          "name": "account",
          "type": "address"
        },
        {
          "indexed": true,
          "internalType": "address",
          "name": "sender",
          "type": "address"
        }
      ],
      "name": "RoleGranted",
      "type": "event"
    },
    {
      "anonymous": false,
      "inputs": [
        {
          "indexed": true,
          "internalType": "bytes32",
          "name": "role",
          "type": "bytes32"
        },
        {
          "indexed": true,
          "internalType": "address",
          "name": "account",
          "type": "address"
        },
        {
          "indexed": true,
          "internalType": "address",
          "name": "sender",
          "type": "address"
        }
      ],
      "name": "RoleRevoked",
      "type": "event"
    },
    {
      "anonymous": false,
      "inputs": [
        {
          "indexed": true,
          "internalType": "address",
          "name": "src",
          "type": "address"
        },
        {
          "indexed": false,
          "internalType": "uint256",
          "name": "wad",
          "type": "uint256"
        }
      ],
      "name": "Withdrawal",
      "type": "event"
    },
    {
      "inputs": [],
      "name": "DEFAULT_ADMIN_ROLE",
      "outputs": [
        {
          "internalType": "bytes32",
          "name": "",
          "type": "bytes32"
        }
      ],
      "stateMutability": "view",
      "type": "function"
    },
    {
      "inputs": [
        {
          "internalType": "address",
          "name": "",
          "type": "address"
        }
      ],
      "name": "balanceOf",
      "outputs": [
        {
          "internalType": "uint256",
          "name": "",
          "type": "uint256"
        }
      ],
      "stateMutability": "view",
      "type": "function"
    },
    {
      "inputs": [
        {
          "internalType": "bytes32",
          "name": "role",
          "type": "bytes32"
        }
      ],
      "name": "getRoleAdmin",
      "outputs": [
        {
          "internalType": "bytes32",
          "name": "",
          "type": "bytes32"
        }
      ],
      "stateMutability": "view",
      "type": "function"
    },
    {
      "inputs": [
        {
          "internalType": "bytes32",
          "name": "role",
          "type": "bytes32"
        },
        {
          "internalType": "address",
          "name": "account",
          "type": "address"
        }
      ],
      "name": "grantRole",
      "outputs": [],
      "stateMutability": "nonpayable",
      "type": "function"
    },
    {
      "inputs": [
        {
          "internalType": "bytes32",
          "name": "role",
          "type": "bytes32"
        },
        {
          "internalType": "address",
          "name": "account",
          "type": "address"
        }
      ],
      "name": "hasRole",
      "outputs": [
        {
          "internalType": "bool",
          "name": "",
          "type": "bool"
        }
      ],
      "stateMutability": "view",
      "type": "function"
    },
    {
      "inputs": [
        {
          "internalType": "bytes32",
          "name": "role",
          "type": "bytes32"
        },
        {
          "internalType": "address",
          "name": "account",
          "type": "address"
        }
      ],
      "name": "renounceRole",
      "outputs": [],
      "stateMutability": "nonpayable",
      "type": "function"
    },
    {
      "inputs": [
        {
          "internalType": "bytes32",
          "name": "role",
          "type": "bytes32"
        },
        {
          "internalType": "address",
          "name": "account",
          "type": "address"
        }
      ],
      "name": "revokeRole",
      "outputs": [],
      "stateMutability": "nonpayable",
      "type": "function"
    },
    {
      "inputs": [
        {
          "internalType": "bytes4",
          "name": "interfaceId",
          "type": "bytes4"
        }
      ],
      "name": "supportsInterface",
      "outputs": [
        {
          "internalType": "bool",
          "name": "",
          "type": "bool"
        }
      ],
      "stateMutability": "view",
      "type": "function"
    },
    {
      "inputs": [],
      "name": "weth",
      "outputs": [
        {
          "internalType": "contract IWETH",
          "name": "",
          "type": "address"
        }
      ],
      "stateMutability": "view",
      "type": "function"
    },
    {
      "inputs": [
        {
          "internalType": "contract IWETH",
          "name": "_weth",
          "type": "address"
        }
      ],
      "name": "initialize",
      "outputs": [],
      "stateMutability": "nonpayable",
      "type": "function"
    },
    {
      "inputs": [],
      "name": "deposit",
      "outputs": [],
      "stateMutability": "payable",
      "type": "function"
    },
    {
      "inputs": [
        {
          "internalType": "uint256",
          "name": "wad",
          "type": "uint256"
        }
      ],
      "name": "withdraw",
      "outputs": [],
      "stateMutability": "nonpayable",
      "type": "function"
    },
    {
      "inputs": [
        {
          "internalType": "contract IWETH",
          "name": "_weth",
          "type": "address"
        }
      ],
      "name": "setWeth",
      "outputs": [],
      "stateMutability": "nonpayable",
      "type": "function"
    },
    {
      "inputs": [],
      "name": "version",
      "outputs": [
        {
          "internalType": "uint256",
          "name": "",
          "type": "uint256"
        }
      ],
      "stateMutability": "pure",
      "type": "function"
    }
  ],
  "bytecode": "0x608060405234801561001057600080fd5b50610c13806100206000396000f3fe6080604052600436106100dd5760003560e01c806370a082311161007f578063b8d1452f11610059578063b8d1452f14610265578063c4d66de814610285578063d0e30db0146102a5578063d547741f146102ad57600080fd5b806370a082311461020357806391d1485414610230578063a217fddf1461025057600080fd5b80632f2ff15d116100bb5780632f2ff15d1461017757806336568abe146101975780633fc8cef3146101b757806354fd4d50146101ef57600080fd5b806301ffc9a7146100e2578063248a9ca3146101175780632e1a7d4d14610155575b600080fd5b3480156100ee57600080fd5b506101026100fd366004610a1c565b6102cd565b60405190151581526020015b60405180910390f35b34801561012357600080fd5b506101476101323660046109d3565b60009081526065602052604090206001015490565b60405190815260200161010e565b34801561016157600080fd5b506101756101703660046109d3565b610304565b005b34801561018357600080fd5b506101756101923660046109ec565b6103da565b3480156101a357600080fd5b506101756101b23660046109ec565b610405565b3480156101c357600080fd5b506098546101d7906001600160a01b031681565b6040516001600160a01b03909116815260200161010e565b3480156101fb57600080fd5b506065610147565b34801561020f57600080fd5b5061014761021e3660046109b6565b60976020526000908152604090205481565b34801561023c57600080fd5b5061010261024b3660046109ec565b610488565b34801561025c57600080fd5b50610147600081565b34801561027157600080fd5b506101756102803660046109b6565b6104b3565b34801561029157600080fd5b506101756102a03660046109b6565b6104fd565b6101756105d6565b3480156102b957600080fd5b506101756102c83660046109ec565b610692565b60006001600160e01b03198216637965db0b60e01b14806102fe57506301ffc9a760e01b6001600160e01b03198316145b92915050565b3360009081526097602052604090205481111561032057600080fd5b336000908152609760205260408120805483929061033f908490610b25565b9091555050609854604051632e1a7d4d60e01b8152600481018390526001600160a01b0390911690632e1a7d4d90602401600060405180830381600087803b15801561038a57600080fd5b505af115801561039e573d6000803e3d6000fd5b50506040518381523392507f7fcf532c15f0a6db0bd6d0e038bea71d30d808c7d98cb3bf7268a95bf5081b65915060200160405180910390a250565b6000828152606560205260409020600101546103f681336106b8565b610400838361071c565b505050565b6001600160a01b038116331461047a5760405162461bcd60e51b815260206004820152602f60248201527f416363657373436f6e74726f6c3a2063616e206f6e6c792072656e6f756e636560448201526e103937b632b9903337b91039b2b63360891b60648201526084015b60405180910390fd5b61048482826107a2565b5050565b60009182526065602090815260408084206001600160a01b0393909316845291905290205460ff1690565b6104be600033610488565b6104db57604051636f4720fd60e11b815260040160405180910390fd5b609880546001600160a01b0319166001600160a01b0392909216919091179055565b600054610100900460ff1680610516575060005460ff16155b6105795760405162461bcd60e51b815260206004820152602e60248201527f496e697469616c697a61626c653a20636f6e747261637420697320616c72656160448201526d191e481a5b9a5d1a585b1a5e995960921b6064820152608401610471565b600054610100900460ff1615801561059b576000805461ffff19166101011790555b6105a6600033610809565b609880546001600160a01b0319166001600160a01b0384161790558015610484576000805461ff00191690555050565b33600090815260976020526040812080543492906105f5908490610aee565b909155505060985460408051630d0e30db60e41b815290516001600160a01b039092169163d0e30db0913491600480830192600092919082900301818588803b15801561064157600080fd5b505af1158015610655573d6000803e3d6000fd5b50506040513481523393507fe1fffcc4923d04b559f4d29a8bfc6cda04eb5b0d3c460751c2402c5c5cc9109c9250602001905060405180910390a2565b6000828152606560205260409020600101546106ae81336106b8565b61040083836107a2565b6106c28282610488565b610484576106da816001600160a01b03166014610813565b6106e5836020610813565b6040516020016106f6929190610a46565b60408051601f198184030181529082905262461bcd60e51b825261047191600401610abb565b6107268282610488565b6104845760008281526065602090815260408083206001600160a01b03851684529091529020805460ff1916600117905561075e3390565b6001600160a01b0316816001600160a01b0316837f2f8788117e7eff1d82e926ec794901d17c78024a50270940304540a733656f0d60405160405180910390a45050565b6107ac8282610488565b156104845760008281526065602090815260408083206001600160a01b0385168085529252808320805460ff1916905551339285917ff6391f5c32d9c69d2a47ea670b442974b53935d1edc7fd64eb21e047a839171b9190a45050565b610484828261071c565b60606000610822836002610b06565b61082d906002610aee565b67ffffffffffffffff81111561084557610845610baf565b6040519080825280601f01601f19166020018201604052801561086f576020820181803683370190505b509050600360fc1b8160008151811061088a5761088a610b99565b60200101906001600160f81b031916908160001a905350600f60fb1b816001815181106108b9576108b9610b99565b60200101906001600160f81b031916908160001a90535060006108dd846002610b06565b6108e8906001610aee565b90505b6001811115610960576f181899199a1a9b1b9c1cb0b131b232b360811b85600f166010811061091c5761091c610b99565b1a60f81b82828151811061093257610932610b99565b60200101906001600160f81b031916908160001a90535060049490941c9361095981610b6c565b90506108eb565b5083156109af5760405162461bcd60e51b815260206004820181905260248201527f537472696e67733a20686578206c656e67746820696e73756666696369656e746044820152606401610471565b9392505050565b6000602082840312156109c857600080fd5b81356109af81610bc5565b6000602082840312156109e557600080fd5b5035919050565b600080604083850312156109ff57600080fd5b823591506020830135610a1181610bc5565b809150509250929050565b600060208284031215610a2e57600080fd5b81356001600160e01b0319811681146109af57600080fd5b7f416363657373436f6e74726f6c3a206163636f756e7420000000000000000000815260008351610a7e816017850160208801610b3c565b7001034b99036b4b9b9b4b733903937b6329607d1b6017918401918201528351610aaf816028840160208801610b3c565b01602801949350505050565b6020815260008251806020840152610ada816040850160208701610b3c565b601f01601f19169190910160400192915050565b60008219821115610b0157610b01610b83565b500190565b6000816000190483118215151615610b2057610b20610b83565b500290565b600082821015610b3757610b37610b83565b500390565b60005b83811015610b57578181015183820152602001610b3f565b83811115610b66576000848401525b50505050565b600081610b7b57610b7b610b83565b506000190190565b634e487b7160e01b600052601160045260246000fd5b634e487b7160e01b600052603260045260246000fd5b634e487b7160e01b600052604160045260246000fd5b6001600160a01b0381168114610bda57600080fd5b5056fea2646970667358221220dd1c009a05b70673b57b624e5259e987f12fdc88481af13aca1c3dfd8348e43e64736f6c63430008070033",
  "immutableReferences": {},
  "source": "// SPDX-License-Identifier: BUSL-1.1\r\npragma solidity 0.8.7;\r\n\r\nimport \"@openzeppelin/contracts/token/ERC20/ERC20.sol\";\r\nimport \"@openzeppelin/contracts/token/ERC20/IERC20.sol\";\r\nimport \"@openzeppelin/contracts/token/ERC20/extensions/IERC20Metadata.sol\";\r\nimport \"@openzeppelin/contracts/token/ERC20/utils/SafeERC20.sol\";\r\nimport \"@openzeppelin/contracts-upgradeable/proxy/utils/Initializable.sol\";\r\nimport \"@openzeppelin/contracts-upgradeable/access/AccessControlUpgradeable.sol\";\r\nimport \"@openzeppelin/contracts-upgradeable/security/ReentrancyGuardUpgradeable.sol\";\r\nimport \"@openzeppelin/contracts-upgradeable/security/PausableUpgradeable.sol\";\r\nimport \"../interfaces/IERC20Permit.sol\";\r\nimport \"../interfaces/IDeBridgeToken.sol\";\r\nimport \"../interfaces/IDeBridgeTokenDeployer.sol\";\r\nimport \"../interfaces/ISignatureVerifier.sol\";\r\nimport \"../interfaces/IWETH.sol\";\r\nimport \"../interfaces/IDeBridgeGate.sol\";\r\nimport \"../interfaces/IConfirmationAggregator.sol\";\r\nimport \"../interfaces/ICallProxy.sol\";\r\nimport \"../interfaces/IFlashCallback.sol\";\r\nimport \"../libraries/SignatureUtil.sol\";\r\nimport \"../libraries/Flags.sol\";\r\n\r\ncontract MockWethTest is Initializable, AccessControlUpgradeable\r\n{\r\n    using SafeERC20 for IERC20;\r\n\r\n    mapping (address => uint) public balanceOf;\r\n\r\n    IWETH public weth; // wrapped native token contract\r\n\r\n    /* ========== EVENTS ========== */\r\n\r\n    event  Deposit(address indexed dst, uint wad);\r\n    event  Withdrawal(address indexed src, uint wad);\r\n\r\n    /* ========== ERRORS ========== */\r\n\r\n    error AdminBadRole();\r\n\r\n    /* ========== MODIFIERS ========== */\r\n\r\n    modifier onlyAdmin() {\r\n        if (!hasRole(DEFAULT_ADMIN_ROLE, msg.sender)) revert AdminBadRole();\r\n        _;\r\n    }\r\n\r\n    /* ========== CONSTRUCTOR  ========== */\r\n\r\n    function initialize(\r\n        IWETH _weth\r\n    ) public initializer {\r\n        _setupRole(DEFAULT_ADMIN_ROLE, msg.sender);\r\n\r\n        weth = _weth;\r\n    }\r\n\r\n    function deposit() public payable {\r\n        balanceOf[msg.sender] += msg.value;\r\n        weth.deposit{value: msg.value}();\r\n        emit Deposit(msg.sender, msg.value);\r\n    }\r\n\r\n    function withdraw(uint wad) public {\r\n        require(balanceOf[msg.sender] >= wad);\r\n        balanceOf[msg.sender] -= wad;\r\n        weth.withdraw(wad);\r\n        emit Withdrawal(msg.sender, wad);\r\n    }\r\n\r\n    function setWeth(IWETH _weth) external onlyAdmin {\r\n        weth = _weth;\r\n    }\r\n\r\n    // ============ Version Control ============\r\n    function version() external pure returns (uint256) {\r\n        return 101; // 1.0.1\r\n    }\r\n}\r\n",
  "sourcePath": "D:\\Projects\\Debridge\\debridge-contracts-v1\\contracts\\mock\\MockWethTest.sol",
  "compiler": {
    "name": "solc",
    "version": "0.8.7+commit.e28d00a7.Emscripten.clang"
  },
  "schemaVersion": "3.4.2",
  "updatedAt": "2021-11-03T20:48:55.131Z",
  "devdoc": {
    "kind": "dev",
    "methods": {
      "getRoleAdmin(bytes32)": {
        "details": "Returns the admin role that controls `role`. See {grantRole} and {revokeRole}. To change a role's admin, use {_setRoleAdmin}."
      },
      "grantRole(bytes32,address)": {
        "details": "Grants `role` to `account`. If `account` had not been already granted `role`, emits a {RoleGranted} event. Requirements: - the caller must have ``role``'s admin role."
      },
      "hasRole(bytes32,address)": {
        "details": "Returns `true` if `account` has been granted `role`."
      },
      "renounceRole(bytes32,address)": {
        "details": "Revokes `role` from the calling account. Roles are often managed via {grantRole} and {revokeRole}: this function's purpose is to provide a mechanism for accounts to lose their privileges if they are compromised (such as when a trusted device is misplaced). If the calling account had been granted `role`, emits a {RoleRevoked} event. Requirements: - the caller must be `account`."
      },
      "revokeRole(bytes32,address)": {
        "details": "Revokes `role` from `account`. If `account` had been granted `role`, emits a {RoleRevoked} event. Requirements: - the caller must have ``role``'s admin role."
      },
      "supportsInterface(bytes4)": {
        "details": "See {IERC165-supportsInterface}."
      }
    },
    "version": 1
  },
  "userdoc": {
    "kind": "user",
    "methods": {},
    "version": 1
  }
}