{
  "address": "0xDcE3016dB5c28752EDBA6a18172d4A6f7917D5b6",
  "abi": [
    {
      "inputs": [
        {
          "internalType": "contract IWETH",
          "name": "_weth",
          "type": "address"
        }
      ],
      "stateMutability": "nonpayable",
      "type": "constructor"
    },
    {
      "inputs": [],
      "name": "EthTransferFailed",
      "type": "error"
    },
    {
      "anonymous": false,
      "inputs": [
        {
          "indexed": true,
          "internalType": "address",
          "name": "dst",
          "type": "address"
        },
        {
          "indexed": false,
          "internalType": "uint256",
          "name": "wad",
          "type": "uint256"
        }
      ],
      "name": "Deposit",
      "type": "event"
    },
    {
      "anonymous": false,
      "inputs": [
        {
          "indexed": true,
          "internalType": "address",
          "name": "src",
          "type": "address"
        },
        {
          "indexed": false,
          "internalType": "uint256",
          "name": "wad",
          "type": "uint256"
        }
      ],
      "name": "Withdrawal",
      "type": "event"
    },
    {
      "inputs": [
        {
          "internalType": "address",
          "name": "",
          "type": "address"
        }
      ],
      "name": "balanceOf",
      "outputs": [
        {
          "internalType": "uint256",
          "name": "",
          "type": "uint256"
        }
      ],
      "stateMutability": "view",
      "type": "function"
    },
    {
      "inputs": [],
      "name": "version",
      "outputs": [
        {
          "internalType": "uint256",
          "name": "",
          "type": "uint256"
        }
      ],
      "stateMutability": "pure",
      "type": "function"
    },
    {
      "inputs": [],
      "name": "weth",
      "outputs": [
        {
          "internalType": "contract IWETH",
          "name": "",
          "type": "address"
        }
      ],
      "stateMutability": "view",
      "type": "function"
    },
    {
      "inputs": [
        {
          "internalType": "address",
          "name": "receiver",
          "type": "address"
        },
        {
          "internalType": "uint256",
          "name": "wad",
          "type": "uint256"
        }
      ],
      "name": "withdraw",
      "outputs": [],
      "stateMutability": "nonpayable",
      "type": "function"
    },
    {
      "stateMutability": "payable",
      "type": "receive"
    }
  ],
  "transactionHash": "0xaef0b12aa82163e858d71a902de37df13f59c81389325cff7d5c894d994e42f6",
  "args": [
    "0xae13d989dac2f0debff460ac112a837c89baa7cd"
  ],
  "solcInputHash": "23b2855da9eb7a04e741569c8628fc61",
  "bytecode": "0x608060405234801561001057600080fd5b5060405161039938038061039983398101604081905261002f91610054565b600180546001600160a01b0319166001600160a01b0392909216919091179055610084565b60006020828403121561006657600080fd5b81516001600160a01b038116811461007d57600080fd5b9392505050565b610306806100936000396000f3fe6080604052600436106100435760003560e01c80633fc8cef31461004f57806354fd4d501461008c57806370a08231146100aa578063f3fef3a3146100d757600080fd5b3661004a57005b600080fd5b34801561005b57600080fd5b5060015461006f906001600160a01b031681565b6040516001600160a01b0390911681526020015b60405180910390f35b34801561009857600080fd5b5060655b604051908152602001610083565b3480156100b657600080fd5b5061009c6100c5366004610249565b60006020819052908152604090205481565b3480156100e357600080fd5b506100f76100f236600461026b565b6100f9565b005b600154604051632e1a7d4d60e01b8152600481018390526001600160a01b0390911690632e1a7d4d90602401600060405180830381600087803b15801561013f57600080fd5b505af1158015610153573d6000803e3d6000fd5b50505050610161828261019a565b60405181815233907f7fcf532c15f0a6db0bd6d0e038bea71d30d808c7d98cb3bf7268a95bf5081b659060200160405180910390a25050565b604080516000808252602082019092526001600160a01b0384169083906040516101c49190610295565b60006040518083038185875af1925050503d8060008114610201576040519150601f19603f3d011682016040523d82523d6000602084013e610206565b606091505b505090508061022857604051630db2c7f160e31b815260040160405180910390fd5b505050565b80356001600160a01b038116811461024457600080fd5b919050565b60006020828403121561025b57600080fd5b6102648261022d565b9392505050565b6000806040838503121561027e57600080fd5b6102878361022d565b946020939093013593505050565b6000825160005b818110156102b6576020818601810151858301520161029c565b818111156102c5576000828501525b50919091019291505056fea2646970667358221220093e2ac9ed7e6ccac6278b958372ad6f1d1ce503dfa57fd78d21198a36a376cf64736f6c63430008070033",
  "devdoc": {
    "kind": "dev",
    "methods": {},
    "version": 1
  },
  "userdoc": {
    "kind": "user",
    "methods": {},
    "version": 1
  },
  "storageLayout": {
    "storage": [
      {
        "astId": 7825,
        "contract": "contracts/mock/MockWethGate.sol:MockWethGate",
        "label": "balanceOf",
        "offset": 0,
        "slot": "0",
        "type": "t_mapping(t_address,t_uint256)"
      },
      {
        "astId": 7828,
        "contract": "contracts/mock/MockWethGate.sol:MockWethGate",
        "label": "weth",
        "offset": 0,
        "slot": "1",
        "type": "t_contract(IWETH)6063"
      }
    ],
    "types": {
      "t_address": {
        "encoding": "inplace",
        "label": "address",
        "numberOfBytes": "20"
      },
      "t_contract(IWETH)6063": {
        "encoding": "inplace",
        "label": "contract IWETH",
        "numberOfBytes": "20"
      },
      "t_mapping(t_address,t_uint256)": {
        "encoding": "mapping",
        "key": "t_address",
        "label": "mapping(address => uint256)",
        "numberOfBytes": "32",
        "value": "t_uint256"
      },
      "t_uint256": {
        "encoding": "inplace",
        "label": "uint256",
        "numberOfBytes": "32"
      }
    }
  }
}