{
  "address": "0x9ccc5fAa06fEd1e510ACFA4F593C0a3d63A502cc",
  "abi": [
    {
      "inputs": [
        {
          "internalType": "contract IWETH",
          "name": "_weth",
          "type": "address"
        }
      ],
      "stateMutability": "nonpayable",
      "type": "constructor"
    },
    {
      "anonymous": false,
      "inputs": [
        {
          "indexed": true,
          "internalType": "address",
          "name": "dst",
          "type": "address"
        },
        {
          "indexed": false,
          "internalType": "uint256",
          "name": "wad",
          "type": "uint256"
        }
      ],
      "name": "Deposit",
      "type": "event"
    },
    {
      "anonymous": false,
      "inputs": [
        {
          "indexed": true,
          "internalType": "address",
          "name": "src",
          "type": "address"
        },
        {
          "indexed": false,
          "internalType": "uint256",
          "name": "wad",
          "type": "uint256"
        }
      ],
      "name": "Withdrawal",
      "type": "event"
    },
    {
      "inputs": [
        {
          "internalType": "address",
          "name": "",
          "type": "address"
        }
      ],
      "name": "balanceOf",
      "outputs": [
        {
          "internalType": "uint256",
          "name": "",
          "type": "uint256"
        }
      ],
      "stateMutability": "view",
      "type": "function"
    },
    {
      "inputs": [],
      "name": "deposit",
      "outputs": [],
      "stateMutability": "payable",
      "type": "function"
    },
    {
      "inputs": [],
      "name": "version",
      "outputs": [
        {
          "internalType": "uint256",
          "name": "",
          "type": "uint256"
        }
      ],
      "stateMutability": "pure",
      "type": "function"
    },
    {
      "inputs": [],
      "name": "weth",
      "outputs": [
        {
          "internalType": "contract IWETH",
          "name": "",
          "type": "address"
        }
      ],
      "stateMutability": "view",
      "type": "function"
    },
    {
      "inputs": [
        {
          "internalType": "uint256",
          "name": "wad",
          "type": "uint256"
        }
      ],
      "name": "withdraw",
      "outputs": [],
      "stateMutability": "nonpayable",
      "type": "function"
    },
    {
      "stateMutability": "payable",
      "type": "receive"
    }
  ],
  "transactionHash": "0xc9155db5f0ddfeacfda048b102117cef087aa7c845ea3006f20d062f0826b563",
  "args": [
    "0xae13d989dac2f0debff460ac112a837c89baa7cd"
  ],
  "solcInputHash": "77a42333d914289aaa3b1d0c35cd2dc5",
  "bytecode": "0x608060405234801561001057600080fd5b506040516103f53803806103f583398101604081905261002f91610054565b600180546001600160a01b0319166001600160a01b0392909216919091179055610084565b60006020828403121561006657600080fd5b81516001600160a01b038116811461007d57600080fd5b9392505050565b610362806100936000396000f3fe60806040526004361061004e5760003560e01c80632e1a7d4d1461005a5780633fc8cef31461007c57806354fd4d50146100b957806370a08231146100d7578063d0e30db01461010457600080fd5b3661005557005b600080fd5b34801561006657600080fd5b5061007a6100753660046102ce565b61010c565b005b34801561008857600080fd5b5060015461009c906001600160a01b031681565b6040516001600160a01b0390911681526020015b60405180910390f35b3480156100c557600080fd5b5060655b6040519081526020016100b0565b3480156100e357600080fd5b506100c96100f236600461029e565b60006020819052908152604090205481565b61007a6101e2565b3360009081526020819052604090205481111561012857600080fd5b33600090815260208190526040812080548392906101479084906102ff565b9091555050600154604051632e1a7d4d60e01b8152600481018390526001600160a01b0390911690632e1a7d4d90602401600060405180830381600087803b15801561019257600080fd5b505af11580156101a6573d6000803e3d6000fd5b50506040518381523392507f7fcf532c15f0a6db0bd6d0e038bea71d30d808c7d98cb3bf7268a95bf5081b65915060200160405180910390a250565b33600090815260208190526040812080543492906102019084906102e7565b909155505060015460408051630d0e30db60e41b815290516001600160a01b039092169163d0e30db0913491600480830192600092919082900301818588803b15801561024d57600080fd5b505af1158015610261573d6000803e3d6000fd5b50506040513481523393507fe1fffcc4923d04b559f4d29a8bfc6cda04eb5b0d3c460751c2402c5c5cc9109c9250602001905060405180910390a2565b6000602082840312156102b057600080fd5b81356001600160a01b03811681146102c757600080fd5b9392505050565b6000602082840312156102e057600080fd5b5035919050565b600082198211156102fa576102fa610316565b500190565b60008282101561031157610311610316565b500390565b634e487b7160e01b600052601160045260246000fdfea26469706673582212202b99cb6049d0e67dc60084ae53c724a5795bb71368a0408d0ebb970f27dd47c464736f6c63430008070033",
  "devdoc": {
    "kind": "dev",
    "methods": {},
    "version": 1
  },
  "userdoc": {
    "kind": "user",
    "methods": {},
    "version": 1
  },
  "storageLayout": {
    "storage": [
      {
        "astId": 7990,
        "contract": "contracts/mock/MockWethTestNonUpgradeable.sol:MockWethTestNonUpgradeable",
        "label": "balanceOf",
        "offset": 0,
        "slot": "0",
        "type": "t_mapping(t_address,t_uint256)"
      },
      {
        "astId": 7993,
        "contract": "contracts/mock/MockWethTestNonUpgradeable.sol:MockWethTestNonUpgradeable",
        "label": "weth",
        "offset": 0,
        "slot": "1",
        "type": "t_contract(IWETH)6063"
      }
    ],
    "types": {
      "t_address": {
        "encoding": "inplace",
        "label": "address",
        "numberOfBytes": "20"
      },
      "t_contract(IWETH)6063": {
        "encoding": "inplace",
        "label": "contract IWETH",
        "numberOfBytes": "20"
      },
      "t_mapping(t_address,t_uint256)": {
        "encoding": "mapping",
        "key": "t_address",
        "label": "mapping(address => uint256)",
        "numberOfBytes": "32",
        "value": "t_uint256"
      },
      "t_uint256": {
        "encoding": "inplace",
        "label": "uint256",
        "numberOfBytes": "32"
      }
    }
  }
}